{
  "_format": "hh-sol-artifact-1",
  "contractName": "DecentralizedDataMarket",
  "sourceName": "contracts/DecentralizedDataMarket.sol",
  "abi": [
    {
      "inputs": [],
      "stateMutability": "nonpayable",
      "type": "constructor"
    },
    {
      "inputs": [],
      "name": "AccessControlBadConfirmation",
      "type": "error"
    },
    {
      "inputs": [
        {
          "internalType": "address",
          "name": "account",
          "type": "address"
        },
        {
          "internalType": "bytes32",
          "name": "neededRole",
          "type": "bytes32"
        }
      ],
      "name": "AccessControlUnauthorizedAccount",
      "type": "error"
    },
    {
      "inputs": [
        {
          "internalType": "address",
          "name": "sender",
          "type": "address"
        },
        {
          "internalType": "uint256",
          "name": "tokenId",
          "type": "uint256"
        },
        {
          "internalType": "address",
          "name": "owner",
          "type": "address"
        }
      ],
      "name": "ERC721IncorrectOwner",
      "type": "error"
    },
    {
      "inputs": [
        {
          "internalType": "address",
          "name": "operator",
          "type": "address"
        },
        {
          "internalType": "uint256",
          "name": "tokenId",
          "type": "uint256"
        }
      ],
      "name": "ERC721InsufficientApproval",
      "type": "error"
    },
    {
      "inputs": [
        {
          "internalType": "address",
          "name": "approver",
          "type": "address"
        }
      ],
      "name": "ERC721InvalidApprover",
      "type": "error"
    },
    {
      "inputs": [
        {
          "internalType": "address",
          "name": "operator",
          "type": "address"
        }
      ],
      "name": "ERC721InvalidOperator",
      "type": "error"
    },
    {
      "inputs": [
        {
          "internalType": "address",
          "name": "owner",
          "type": "address"
        }
      ],
      "name": "ERC721InvalidOwner",
      "type": "error"
    },
    {
      "inputs": [
        {
          "internalType": "address",
          "name": "receiver",
          "type": "address"
        }
      ],
      "name": "ERC721InvalidReceiver",
      "type": "error"
    },
    {
      "inputs": [
        {
          "internalType": "address",
          "name": "sender",
          "type": "address"
        }
      ],
      "name": "ERC721InvalidSender",
      "type": "error"
    },
    {
      "inputs": [
        {
          "internalType": "uint256",
          "name": "tokenId",
          "type": "uint256"
        }
      ],
      "name": "ERC721NonexistentToken",
      "type": "error"
    },
    {
      "inputs": [
        {
          "internalType": "address",
          "name": "owner",
          "type": "address"
        }
      ],
      "name": "OwnableInvalidOwner",
      "type": "error"
    },
    {
      "inputs": [
        {
          "internalType": "address",
          "name": "account",
          "type": "address"
        }
      ],
      "name": "OwnableUnauthorizedAccount",
      "type": "error"
    },
    {
      "anonymous": false,
      "inputs": [
        {
          "indexed": true,
          "internalType": "address",
          "name": "owner",
          "type": "address"
        },
        {
          "indexed": true,
          "internalType": "address",
          "name": "approved",
          "type": "address"
        },
        {
          "indexed": true,
          "internalType": "uint256",
          "name": "tokenId",
          "type": "uint256"
        }
      ],
      "name": "Approval",
      "type": "event"
    },
    {
      "anonymous": false,
      "inputs": [
        {
          "indexed": true,
          "internalType": "address",
          "name": "owner",
          "type": "address"
        },
        {
          "indexed": true,
          "internalType": "address",
          "name": "operator",
          "type": "address"
        },
        {
          "indexed": false,
          "internalType": "bool",
          "name": "approved",
          "type": "bool"
        }
      ],
      "name": "ApprovalForAll",
      "type": "event"
    },
    {
      "anonymous": false,
      "inputs": [
        {
          "indexed": false,
          "internalType": "uint256",
          "name": "_fromTokenId",
          "type": "uint256"
        },
        {
          "indexed": false,
          "internalType": "uint256",
          "name": "_toTokenId",
          "type": "uint256"
        }
      ],
      "name": "BatchMetadataUpdate",
      "type": "event"
    },
    {
      "anonymous": false,
      "inputs": [
        {
          "indexed": true,
          "internalType": "uint256",
          "name": "tokenId",
          "type": "uint256"
        },
        {
          "indexed": true,
          "internalType": "uint256",
          "name": "price",
          "type": "uint256"
        },
        {
          "indexed": false,
          "internalType": "address",
          "name": "creator",
          "type": "address"
        }
      ],
      "name": "DataListedForSale",
      "type": "event"
    },
    {
      "anonymous": false,
      "inputs": [
        {
          "indexed": true,
          "internalType": "uint256",
          "name": "tokenId",
          "type": "uint256"
        },
        {
          "indexed": true,
          "internalType": "string",
          "name": "dataHash",
          "type": "string"
        },
        {
          "indexed": true,
          "internalType": "enum DecentralizedDataMarket.DataCategory",
          "name": "category",
          "type": "uint8"
        },
        {
          "indexed": false,
          "internalType": "address",
          "name": "creator",
          "type": "address"
        }
      ],
      "name": "DataTokenCreated",
      "type": "event"
    },
    {
      "anonymous": false,
      "inputs": [
        {
          "indexed": false,
          "internalType": "uint256",
          "name": "_tokenId",
          "type": "uint256"
        }
      ],
      "name": "MetadataUpdate",
      "type": "event"
    },
    {
      "anonymous": false,
      "inputs": [
        {
          "indexed": true,
          "internalType": "address",
          "name": "previousOwner",
          "type": "address"
        },
        {
          "indexed": true,
          "internalType": "address",
          "name": "newOwner",
          "type": "address"
        }
      ],
      "name": "OwnershipTransferred",
      "type": "event"
    },
    {
      "anonymous": false,
      "inputs": [
        {
          "indexed": true,
          "internalType": "bytes32",
          "name": "role",
          "type": "bytes32"
        },
        {
          "indexed": true,
          "internalType": "bytes32",
          "name": "previousAdminRole",
          "type": "bytes32"
        },
        {
          "indexed": true,
          "internalType": "bytes32",
          "name": "newAdminRole",
          "type": "bytes32"
        }
      ],
      "name": "RoleAdminChanged",
      "type": "event"
    },
    {
      "anonymous": false,
      "inputs": [
        {
          "indexed": true,
          "internalType": "bytes32",
          "name": "role",
          "type": "bytes32"
        },
        {
          "indexed": true,
          "internalType": "address",
          "name": "account",
          "type": "address"
        },
        {
          "indexed": true,
          "internalType": "address",
          "name": "sender",
          "type": "address"
        }
      ],
      "name": "RoleGranted",
      "type": "event"
    },
    {
      "anonymous": false,
      "inputs": [
        {
          "indexed": true,
          "internalType": "bytes32",
          "name": "role",
          "type": "bytes32"
        },
        {
          "indexed": true,
          "internalType": "address",
          "name": "account",
          "type": "address"
        },
        {
          "indexed": true,
          "internalType": "address",
          "name": "sender",
          "type": "address"
        }
      ],
      "name": "RoleRevoked",
      "type": "event"
    },
    {
      "anonymous": false,
      "inputs": [
        {
          "indexed": false,
          "internalType": "address",
          "name": "creator",
          "type": "address"
        },
        {
          "indexed": true,
          "internalType": "uint256",
          "name": "tokenId",
          "type": "uint256"
        },
        {
          "indexed": false,
          "internalType": "uint256",
          "name": "duration",
          "type": "uint256"
        }
      ],
      "name": "SubscriptionCreated",
      "type": "event"
    },
    {
      "anonymous": false,
      "inputs": [
        {
          "indexed": true,
          "internalType": "address",
          "name": "from",
          "type": "address"
        },
        {
          "indexed": true,
          "internalType": "address",
          "name": "to",
          "type": "address"
        },
        {
          "indexed": true,
          "internalType": "uint256",
          "name": "tokenId",
          "type": "uint256"
        }
      ],
      "name": "Transfer",
      "type": "event"
    },
    {
      "inputs": [],
      "name": "ADMIN_ROLE",
      "outputs": [
        {
          "internalType": "bytes32",
          "name": "",
          "type": "bytes32"
        }
      ],
      "stateMutability": "view",
      "type": "function"
    },
    {
      "inputs": [],
      "name": "CONSUMER_ROLE",
      "outputs": [
        {
          "internalType": "bytes32",
          "name": "",
          "type": "bytes32"
        }
      ],
      "stateMutability": "view",
      "type": "function"
    },
    {
      "inputs": [],
      "name": "DATA_PROVIDER_ROLE",
      "outputs": [
        {
          "internalType": "bytes32",
          "name": "",
          "type": "bytes32"
        }
      ],
      "stateMutability": "view",
      "type": "function"
    },
    {
      "inputs": [],
      "name": "DEFAULT_ADMIN_ROLE",
      "outputs": [
        {
          "internalType": "bytes32",
          "name": "",
          "type": "bytes32"
        }
      ],
      "stateMutability": "view",
      "type": "function"
    },
    {
      "inputs": [
        {
          "internalType": "address",
          "name": "to",
          "type": "address"
        },
        {
          "internalType": "uint256",
          "name": "tokenId",
          "type": "uint256"
        }
      ],
      "name": "approve",
      "outputs": [],
      "stateMutability": "nonpayable",
      "type": "function"
    },
    {
      "inputs": [
        {
          "internalType": "address",
          "name": "owner",
          "type": "address"
        }
      ],
      "name": "balanceOf",
      "outputs": [
        {
          "internalType": "uint256",
          "name": "",
          "type": "uint256"
        }
      ],
      "stateMutability": "view",
      "type": "function"
    },
    {
      "inputs": [
        {
          "internalType": "uint256",
          "name": "",
          "type": "uint256"
        }
      ],
      "name": "dataCategories",
      "outputs": [
        {
          "internalType": "enum DecentralizedDataMarket.DataCategory",
          "name": "",
          "type": "uint8"
        }
      ],
      "stateMutability": "view",
      "type": "function"
    },
    {
      "inputs": [
        {
          "internalType": "uint256",
          "name": "tokenId",
          "type": "uint256"
        }
      ],
      "name": "getApproved",
      "outputs": [
        {
          "internalType": "address",
          "name": "",
          "type": "address"
        }
      ],
      "stateMutability": "view",
      "type": "function"
    },
    {
      "inputs": [
        {
          "internalType": "uint256",
          "name": "tokenId",
          "type": "uint256"
        }
      ],
      "name": "getDataURI",
      "outputs": [
        {
          "internalType": "string",
          "name": "",
          "type": "string"
        }
      ],
      "stateMutability": "view",
      "type": "function"
    },
    {
      "inputs": [
        {
          "internalType": "bytes32",
          "name": "role",
          "type": "bytes32"
        }
      ],
      "name": "getRoleAdmin",
      "outputs": [
        {
          "internalType": "bytes32",
          "name": "",
          "type": "bytes32"
        }
      ],
      "stateMutability": "view",
      "type": "function"
    },
    {
      "inputs": [
        {
          "internalType": "address",
          "name": "account",
          "type": "address"
        }
      ],
      "name": "grantAdminRole",
      "outputs": [],
      "stateMutability": "nonpayable",
      "type": "function"
    },
    {
      "inputs": [
        {
          "internalType": "address",
          "name": "account",
          "type": "address"
        }
      ],
      "name": "grantConsumerRole",
      "outputs": [],
      "stateMutability": "nonpayable",
      "type": "function"
    },
    {
      "inputs": [
        {
          "internalType": "address",
          "name": "account",
          "type": "address"
        }
      ],
      "name": "grantDataProviderRole",
      "outputs": [],
      "stateMutability": "nonpayable",
      "type": "function"
    },
    {
      "inputs": [
        {
          "internalType": "bytes32",
          "name": "role",
          "type": "bytes32"
        },
        {
          "internalType": "address",
          "name": "account",
          "type": "address"
        }
      ],
      "name": "grantRole",
      "outputs": [],
      "stateMutability": "nonpayable",
      "type": "function"
    },
    {
      "inputs": [
        {
          "internalType": "bytes32",
          "name": "role",
          "type": "bytes32"
        },
        {
          "internalType": "address",
          "name": "account",
          "type": "address"
        }
      ],
      "name": "hasRole",
      "outputs": [
        {
          "internalType": "bool",
          "name": "",
          "type": "bool"
        }
      ],
      "stateMutability": "view",
      "type": "function"
    },
    {
      "inputs": [
        {
          "internalType": "address",
          "name": "owner",
          "type": "address"
        },
        {
          "internalType": "address",
          "name": "operator",
          "type": "address"
        }
      ],
      "name": "isApprovedForAll",
      "outputs": [
        {
          "internalType": "bool",
          "name": "",
          "type": "bool"
        }
      ],
      "stateMutability": "view",
      "type": "function"
    },
    {
      "inputs": [
        {
          "internalType": "uint256",
          "name": "tokenId",
          "type": "uint256"
        },
        {
          "internalType": "uint256",
          "name": "price",
          "type": "uint256"
        }
      ],
      "name": "listDataForSale",
      "outputs": [],
      "stateMutability": "nonpayable",
      "type": "function"
    },
    {
      "inputs": [
        {
          "internalType": "string",
          "name": "ipfsHash",
          "type": "string"
        },
        {
          "internalType": "enum DecentralizedDataMarket.DataCategory",
          "name": "category",
          "type": "uint8"
        }
      ],
      "name": "mintDataToken",
      "outputs": [],
      "stateMutability": "payable",
      "type": "function"
    },
    {
      "inputs": [],
      "name": "mintFee",
      "outputs": [
        {
          "internalType": "uint256",
          "name": "",
          "type": "uint256"
        }
      ],
      "stateMutability": "view",
      "type": "function"
    },
    {
      "inputs": [],
      "name": "monthlyFee",
      "outputs": [
        {
          "internalType": "uint256",
          "name": "",
          "type": "uint256"
        }
      ],
      "stateMutability": "view",
      "type": "function"
    },
    {
      "inputs": [],
      "name": "name",
      "outputs": [
        {
          "internalType": "string",
          "name": "",
          "type": "string"
        }
      ],
      "stateMutability": "view",
      "type": "function"
    },
    {
      "inputs": [],
      "name": "owner",
      "outputs": [
        {
          "internalType": "address",
          "name": "",
          "type": "address"
        }
      ],
      "stateMutability": "view",
      "type": "function"
    },
    {
      "inputs": [
        {
          "internalType": "uint256",
          "name": "tokenId",
          "type": "uint256"
        }
      ],
      "name": "ownerOf",
      "outputs": [
        {
          "internalType": "address",
          "name": "",
          "type": "address"
        }
      ],
      "stateMutability": "view",
      "type": "function"
    },
    {
      "inputs": [],
      "name": "platformFee",
      "outputs": [
        {
          "internalType": "uint256",
          "name": "",
          "type": "uint256"
        }
      ],
      "stateMutability": "view",
      "type": "function"
    },
    {
      "inputs": [
        {
          "internalType": "uint256",
          "name": "tokenId",
          "type": "uint256"
        }
      ],
      "name": "priceOf",
      "outputs": [
        {
          "internalType": "uint256",
          "name": "",
          "type": "uint256"
        }
      ],
      "stateMutability": "view",
      "type": "function"
    },
    {
      "inputs": [
        {
          "internalType": "uint256",
          "name": "tokenId",
          "type": "uint256"
        }
      ],
      "name": "purchaseData",
      "outputs": [],
      "stateMutability": "payable",
      "type": "function"
    },
    {
      "inputs": [],
      "name": "renounceOwnership",
      "outputs": [],
      "stateMutability": "nonpayable",
      "type": "function"
    },
    {
      "inputs": [
        {
          "internalType": "bytes32",
          "name": "role",
          "type": "bytes32"
        },
        {
          "internalType": "address",
          "name": "callerConfirmation",
          "type": "address"
        }
      ],
      "name": "renounceRole",
      "outputs": [],
      "stateMutability": "nonpayable",
      "type": "function"
    },
    {
      "inputs": [
        {
          "internalType": "uint256",
          "name": "tokenId",
          "type": "uint256"
        }
      ],
      "name": "requestDataAccess",
      "outputs": [
        {
          "internalType": "string",
          "name": "",
          "type": "string"
        }
      ],
      "stateMutability": "payable",
      "type": "function"
    },
    {
      "inputs": [
        {
          "internalType": "address",
          "name": "account",
          "type": "address"
        }
      ],
      "name": "revokeAdminRole",
      "outputs": [],
      "stateMutability": "nonpayable",
      "type": "function"
    },
    {
      "inputs": [
        {
          "internalType": "address",
          "name": "account",
          "type": "address"
        }
      ],
      "name": "revokeConsumerRole",
      "outputs": [],
      "stateMutability": "nonpayable",
      "type": "function"
    },
    {
      "inputs": [
        {
          "internalType": "address",
          "name": "account",
          "type": "address"
        }
      ],
      "name": "revokeDataProviderRole",
      "outputs": [],
      "stateMutability": "nonpayable",
      "type": "function"
    },
    {
      "inputs": [
        {
          "internalType": "bytes32",
          "name": "role",
          "type": "bytes32"
        },
        {
          "internalType": "address",
          "name": "account",
          "type": "address"
        }
      ],
      "name": "revokeRole",
      "outputs": [],
      "stateMutability": "nonpayable",
      "type": "function"
    },
    {
      "inputs": [
        {
          "internalType": "address",
          "name": "from",
          "type": "address"
        },
        {
          "internalType": "address",
          "name": "to",
          "type": "address"
        },
        {
          "internalType": "uint256",
          "name": "tokenId",
          "type": "uint256"
        }
      ],
      "name": "safeTransferFrom",
      "outputs": [],
      "stateMutability": "nonpayable",
      "type": "function"
    },
    {
      "inputs": [
        {
          "internalType": "address",
          "name": "from",
          "type": "address"
        },
        {
          "internalType": "address",
          "name": "to",
          "type": "address"
        },
        {
          "internalType": "uint256",
          "name": "tokenId",
          "type": "uint256"
        },
        {
          "internalType": "bytes",
          "name": "data",
          "type": "bytes"
        }
      ],
      "name": "safeTransferFrom",
      "outputs": [],
      "stateMutability": "nonpayable",
      "type": "function"
    },
    {
      "inputs": [
        {
          "internalType": "address",
          "name": "operator",
          "type": "address"
        },
        {
          "internalType": "bool",
          "name": "approved",
          "type": "bool"
        }
      ],
      "name": "setApprovalForAll",
      "outputs": [],
      "stateMutability": "nonpayable",
      "type": "function"
    },
    {
      "inputs": [
        {
          "internalType": "uint256",
          "name": "tokenId",
          "type": "uint256"
        }
      ],
      "name": "subscribeToToken",
      "outputs": [],
      "stateMutability": "payable",
      "type": "function"
    },
    {
      "inputs": [
        {
          "internalType": "address",
          "name": "",
          "type": "address"
        },
        {
          "internalType": "uint256",
          "name": "",
          "type": "uint256"
        }
      ],
      "name": "subscriptions",
      "outputs": [
        {
          "internalType": "uint256",
          "name": "expiresAt",
          "type": "uint256"
        },
        {
          "internalType": "enum DecentralizedDataMarket.DataCategory",
          "name": "category",
          "type": "uint8"
        }
      ],
      "stateMutability": "view",
      "type": "function"
    },
    {
      "inputs": [
        {
          "internalType": "bytes4",
          "name": "interfaceId",
          "type": "bytes4"
        }
      ],
      "name": "supportsInterface",
      "outputs": [
        {
          "internalType": "bool",
          "name": "",
          "type": "bool"
        }
      ],
      "stateMutability": "view",
      "type": "function"
    },
    {
      "inputs": [],
      "name": "symbol",
      "outputs": [
        {
          "internalType": "string",
          "name": "",
          "type": "string"
        }
      ],
      "stateMutability": "view",
      "type": "function"
    },
    {
      "inputs": [
        {
          "internalType": "uint256",
          "name": "",
          "type": "uint256"
        }
      ],
      "name": "tokenPrices",
      "outputs": [
        {
          "internalType": "uint256",
          "name": "",
          "type": "uint256"
        }
      ],
      "stateMutability": "view",
      "type": "function"
    },
    {
      "inputs": [
        {
          "internalType": "uint256",
          "name": "tokenId",
          "type": "uint256"
        }
      ],
      "name": "tokenURI",
      "outputs": [
        {
          "internalType": "string",
          "name": "",
          "type": "string"
        }
      ],
      "stateMutability": "view",
      "type": "function"
    },
    {
      "inputs": [
        {
          "internalType": "address",
          "name": "from",
          "type": "address"
        },
        {
          "internalType": "address",
          "name": "to",
          "type": "address"
        },
        {
          "internalType": "uint256",
          "name": "tokenId",
          "type": "uint256"
        }
      ],
      "name": "transferFrom",
      "outputs": [],
      "stateMutability": "nonpayable",
      "type": "function"
    },
    {
      "inputs": [
        {
          "internalType": "address",
          "name": "newOwner",
          "type": "address"
        }
      ],
      "name": "transferOwnership",
      "outputs": [],
      "stateMutability": "nonpayable",
      "type": "function"
    }
  ],
  "bytecode": "0x608060405266b1a2bc2ec5000060095566038d7ea4c68000600a5566071afd498d0000600b553480156200003257600080fd5b50336040518060400160405280601781526020017f446563656e7472616c697a6564446174614d61726b657400000000000000000081525060405180604001604052806005815260200164444154414d60d81b8152508160009081620000999190620002c3565b506001620000a88282620002c3565b5050506001600160a01b038116620000da57604051631e4fbdf760e01b81526000600482015260240160405180910390fd5b620000e58162000119565b50620001127fa49807205ce4d355092ef5a8a18f56e8913cf4a201fbe287825b095693c21775336200016b565b506200038f565b600880546001600160a01b038381166001600160a01b0319831681179093556040519116919082907f8be0079c531659141344cd1fd0a4f28419497f9722a3daafe3b4186f6b6457e090600090a35050565b60008281526007602090815260408083206001600160a01b038516845290915281205460ff16620002145760008381526007602090815260408083206001600160a01b03861684529091529020805460ff19166001179055620001cb3390565b6001600160a01b0316826001600160a01b0316847f2f8788117e7eff1d82e926ec794901d17c78024a50270940304540a733656f0d60405160405180910390a450600162000218565b5060005b92915050565b634e487b7160e01b600052604160045260246000fd5b600181811c908216806200024957607f821691505b6020821081036200026a57634e487b7160e01b600052602260045260246000fd5b50919050565b601f821115620002be57600081815260208120601f850160051c81016020861015620002995750805b601f850160051c820191505b81811015620002ba57828155600101620002a5565b5050505b505050565b81516001600160401b03811115620002df57620002df6200021e565b620002f781620002f0845462000234565b8462000270565b602080601f8311600181146200032f5760008415620003165750858301515b600019600386901b1c1916600185901b178555620002ba565b600085815260208120601f198616915b8281101562000360578886015182559484019460019091019084016200033f565b50858210156200037f5787850151600019600388901b60f8161c191681555b5050505050600190811b01905550565b612bfc806200039f6000396000f3fe6080604052600436106102e75760003560e01c80638cfd3e4011610184578063c634b78e116100d6578063e5afe3e61161008a578063ec7095ec11610064578063ec7095ec146108bb578063f01edf32146108db578063f2fde38b1461091857600080fd5b8063e5afe3e614610825578063e7b8e21b14610852578063e985e9c51461087257600080fd5b8063d547741f116100bb578063d547741f146107d2578063d5e305ca146107f2578063de42fe431461081257600080fd5b8063c634b78e14610792578063c87b56dd146107b257600080fd5b80639ec34a5811610138578063a22cb46511610112578063a22cb46514610725578063b88d4fde14610745578063b9186d7d1461076557600080fd5b80639ec34a58146106d05780639fdbded1146106f0578063a217fddf1461071057600080fd5b806391d148541161016957806391d148541461065557806395d89b411461069b5780639a19c7b0146106b057600080fd5b80638cfd3e40146106215780638da5cb5b1461063757600080fd5b80633aeae31d1161023d5780636352211e116101f1578063715018a6116101cb578063715018a6146105c557806375b238fc146105da57806384c4f5941461060e57600080fd5b80636352211e146105655780636cc3a64e1461058557806370a08231146105a557600080fd5b80634bc02da6116102225780634bc02da6146104ce5780635eba61c714610502578063623da3d11461051557600080fd5b80633aeae31d1461047a57806342842e0e146104ae57600080fd5b806323b872dd1161029f57806326a7ae951161027957806326a7ae95146104275780632f2ff15d1461043a57806336568abe1461045a57600080fd5b806323b872dd146103c1578063248a9ca3146103e157806326232a2e1461041157600080fd5b8063081812fc116102d0578063081812fc14610343578063095ea7b31461037b57806313966db51461039d57600080fd5b806301ffc9a7146102ec57806306fdde0314610321575b600080fd5b3480156102f857600080fd5b5061030c6103073660046125cd565b610938565b60405190151581526020015b60405180910390f35b34801561032d57600080fd5b50610336610987565b604051610318919061263a565b34801561034f57600080fd5b5061036361035e36600461264d565b610a19565b6040516001600160a01b039091168152602001610318565b34801561038757600080fd5b5061039b61039636600461267d565b610a42565b005b3480156103a957600080fd5b506103b3600a5481565b604051908152602001610318565b3480156103cd57600080fd5b5061039b6103dc3660046126a7565b610a51565b3480156103ed57600080fd5b506103b36103fc36600461264d565b60009081526007602052604090206001015490565b34801561041d57600080fd5b506103b360095481565b61039b61043536600461276f565b610afa565b34801561044657600080fd5b5061039b6104553660046127d9565b610cbd565b34801561046657600080fd5b5061039b6104753660046127d9565b610ce2565b34801561048657600080fd5b506103b37fb6f6b279a7a4e2aa16012cbd36fcdc1fbdb91b92fd6dab57885c9de496473a8d81565b3480156104ba57600080fd5b5061039b6104c93660046126a7565b610d33565b3480156104da57600080fd5b506103b37f9d56108290ea0bc9c5c59c3ad357dca9d1b29ed7f3ae1443bef2fa2159bdf5e881565b61039b61051036600461264d565b610d4e565b34801561052157600080fd5b5061055761053036600461267d565b600f6020908152600092835260408084209091529082529020805460019091015460ff1682565b60405161031892919061283d565b34801561057157600080fd5b5061036361058036600461264d565b611063565b34801561059157600080fd5b5061039b6105a0366004612851565b61106e565b3480156105b157600080fd5b506103b36105c0366004612851565b6110c2565b3480156105d157600080fd5b5061039b611123565b3480156105e657600080fd5b506103b37fa49807205ce4d355092ef5a8a18f56e8913cf4a201fbe287825b095693c2177581565b61039b61061c36600461264d565b611137565b34801561062d57600080fd5b506103b3600b5481565b34801561064357600080fd5b506008546001600160a01b0316610363565b34801561066157600080fd5b5061030c6106703660046127d9565b60009182526007602090815260408084206001600160a01b0393909316845291905290205460ff1690565b3480156106a757600080fd5b506103366112db565b3480156106bc57600080fd5b5061039b6106cb366004612851565b6112ea565b3480156106dc57600080fd5b5061039b6106eb366004612851565b611396565b3480156106fc57600080fd5b5061039b61070b366004612851565b6113ea565b34801561071c57600080fd5b506103b3600081565b34801561073157600080fd5b5061039b61074036600461286c565b61143e565b34801561075157600080fd5b5061039b61076036600461289d565b611449565b34801561077157600080fd5b506103b361078036600461264d565b6000908152600d602052604090205490565b34801561079e57600080fd5b5061039b6107ad366004612851565b611460565b3480156107be57600080fd5b506103366107cd36600461264d565b6114b4565b3480156107de57600080fd5b5061039b6107ed3660046127d9565b6115c5565b3480156107fe57600080fd5b5061033661080d36600461264d565b6115ea565b61033661082036600461264d565b611691565b34801561083157600080fd5b506103b361084036600461264d565b600d6020526000908152604090205481565b34801561085e57600080fd5b5061039b61086d366004612851565b6117f9565b34801561087e57600080fd5b5061030c61088d366004612919565b6001600160a01b03918216600090815260056020908152604080832093909416825291909152205460ff1690565b3480156108c757600080fd5b5061039b6108d6366004612943565b61184d565b3480156108e757600080fd5b5061090b6108f636600461264d565b600e6020526000908152604090205460ff1681565b6040516103189190612965565b34801561092457600080fd5b5061039b610933366004612851565b611988565b60007ffe003659000000000000000000000000000000000000000000000000000000006001600160e01b031983160161097357506001919050565b61097c826119df565b92915050565b919050565b60606000805461099690612973565b80601f01602080910402602001604051908101604052809291908181526020018280546109c290612973565b8015610a0f5780601f106109e457610100808354040283529160200191610a0f565b820191906000526020600020905b8154815290600101906020018083116109f257829003601f168201915b5050505050905090565b6000610a2482611a1d565b506000828152600460205260409020546001600160a01b031661097c565b610a4d828233611a56565b5050565b6001600160a01b038216610a8057604051633250574960e11b8152600060048201526024015b60405180910390fd5b6000610a8d838333611a63565b9050836001600160a01b0316816001600160a01b031614610af4576040517f64283d7b0000000000000000000000000000000000000000000000000000000081526001600160a01b0380861660048301526024820184905282166044820152606401610a77565b50505050565b7fb6f6b279a7a4e2aa16012cbd36fcdc1fbdb91b92fd6dab57885c9de496473a8d610b2481611b6b565b600a54341015610b765760405162461bcd60e51b815260206004820152601060248201527f496e73756666696369656e7420666565000000000000000000000000000000006044820152606401610a77565b6000835111610bc75760405162461bcd60e51b815260206004820152601160248201527f496e76616c6964204950465320686173680000000000000000000000000000006044820152606401610a77565b6000600c546001610bd891906129bd565b9050610be43382611b75565b610bee8185611b8f565b6000818152600e60205260409020805484919060ff19166001836002811115610c1957610c19612805565b0217905550600854600a546040516001600160a01b039092169181156108fc0291906000818181858888f19350505050158015610c5a573d6000803e3d6000fd5b50826002811115610c6d57610c6d612805565b84604051610c7b91906129d0565b6040519081900381203382529083907f48e112afc30842835d04b40fdd9c01089c23aff9a1c41dc8de3eea9ad68f208c9060200160405180910390a450505050565b600082815260076020526040902060010154610cd881611b6b565b610af48383611bdf565b6001600160a01b0381163314610d24576040517f6697b23200000000000000000000000000000000000000000000000000000000815260040160405180910390fd5b610d2e8282611c8d565b505050565b610d2e83838360405180602001604052806000815250611449565b7f9d56108290ea0bc9c5c59c3ad357dca9d1b29ed7f3ae1443bef2fa2159bdf5e8610d7881611b6b565b600c54821115610dca5760405162461bcd60e51b815260206004820152601460248201527f546f6b656e20646f6573206e6f742065786973740000000000000000000000006044820152606401610a77565b600b54341015610e1c5760405162461bcd60e51b815260206004820152601260248201527f496e73756666696369656e742066756e647300000000000000000000000000006044820152606401610a77565b610e51610e2883611063565b6001600160a01b0316600090815260056020908152604080832033845290915290205460ff1690565b80610e6c575033610e6183610a19565b6001600160a01b0316145b80610e87575033610e7c83611063565b6001600160a01b0316145b610ed35760405162461bcd60e51b815260206004820152601260248201527f546f6b656e206e6f7420617070726f76656400000000000000000000000000006044820152606401610a77565b6040805180820190915262278d009080610eed83426129bd565b81526000858152600e602090815260409091205491019060ff166002811115610f1857610f18612805565b9052336000908152600f602090815260408083208784528252909120825181559082015160018083018054909160ff1990911690836002811115610f5e57610f5e612805565b0217905550905050600060646009546064610f7991906129ec565b600b54610f8691906129ff565b610f909190612a16565b9050600081600b54610fa291906129ec565b9050610fad85611063565b6001600160a01b03166108fc839081150290604051600060405180830381858888f19350505050158015610fe5573d6000803e3d6000fd5b506008546040516001600160a01b039091169082156108fc029083906000818181858888f19350505050158015611020573d6000803e3d6000fd5b50604080513381526020810185905286917feec977e786e7248a658b0474ccf8f57f37ead019014ec4d5ba1542ddabeff1b4910160405180910390a25050505050565b600061097c82611a1d565b7fa49807205ce4d355092ef5a8a18f56e8913cf4a201fbe287825b095693c2177561109881611b6b565b610d2e7f9d56108290ea0bc9c5c59c3ad357dca9d1b29ed7f3ae1443bef2fa2159bdf5e883611bdf565b60006001600160a01b038216611107576040517f89c62b6400000000000000000000000000000000000000000000000000000000815260006004820152602401610a77565b506001600160a01b031660009081526003602052604090205490565b61112b611d14565b6111356000611d5a565b565b7f9d56108290ea0bc9c5c59c3ad357dca9d1b29ed7f3ae1443bef2fa2159bdf5e861116181611b6b565b6000828152600d6020526040902054806111bd5760405162461bcd60e51b815260206004820152601b60248201527f546f6b656e20686173206e6f74207072696365207365742079657400000000006044820152606401610a77565b8034101561120d5760405162461bcd60e51b815260206004820152601260248201527f496e73756666696369656e742066756e647300000000000000000000000000006044820152606401610a77565b60006064600954606461122091906129ec565b61122a90846129ff565b6112349190612a16565b9050600061124282846129ec565b905061125761125086611063565b3387610d33565b61126085611063565b6001600160a01b03166108fc839081150290604051600060405180830381858888f19350505050158015611298573d6000803e3d6000fd5b506008546040516001600160a01b039091169082156108fc029083906000818181858888f193505050501580156112d3573d6000803e3d6000fd5b505050505050565b60606001805461099690612973565b7fa49807205ce4d355092ef5a8a18f56e8913cf4a201fbe287825b095693c2177561131481611b6b565b336001600160a01b0383160361136c5760405162461bcd60e51b815260206004820152601c60248201527f43616e6e6f74207265766f6b65206f776e2061646d696e20726f6c65000000006044820152606401610a77565b610d2e7fa49807205ce4d355092ef5a8a18f56e8913cf4a201fbe287825b095693c2177583611c8d565b7fa49807205ce4d355092ef5a8a18f56e8913cf4a201fbe287825b095693c217756113c081611b6b565b610d2e7fb6f6b279a7a4e2aa16012cbd36fcdc1fbdb91b92fd6dab57885c9de496473a8d83611c8d565b7fa49807205ce4d355092ef5a8a18f56e8913cf4a201fbe287825b095693c2177561141481611b6b565b610d2e7fb6f6b279a7a4e2aa16012cbd36fcdc1fbdb91b92fd6dab57885c9de496473a8d83611bdf565b610a4d338383611db9565b611454848484610a51565b610af484848484611e71565b7fa49807205ce4d355092ef5a8a18f56e8913cf4a201fbe287825b095693c2177561148a81611b6b565b610d2e7fa49807205ce4d355092ef5a8a18f56e8913cf4a201fbe287825b095693c2177583611bdf565b60606114bf82611a1d565b50600082815260066020526040812080546114d990612973565b80601f016020809104026020016040519081016040528092919081815260200182805461150590612973565b80156115525780601f1061152757610100808354040283529160200191611552565b820191906000526020600020905b81548152906001019060200180831161153557829003601f168201915b50505050509050600061157060408051602081019091526000815290565b90508051600003611582575092915050565b8151156115b457808260405160200161159c929190612a38565b60405160208183030381529060405292505050919050565b6115bd84611f9a565b949350505050565b6000828152600760205260409020600101546115e081611b6b565b610af48383611c8d565b60607fb6f6b279a7a4e2aa16012cbd36fcdc1fbdb91b92fd6dab57885c9de496473a8d61161681611b6b565b823361162182611063565b6001600160a01b0316146116885760405162461bcd60e51b815260206004820152602860248201527f4f6e6c7920746f6b656e206f776e65722063616e20706572666f726d20746869604482015267399030b1ba34b7b760c11b6064820152608401610a77565b6115bd846114b4565b60607f9d56108290ea0bc9c5c59c3ad357dca9d1b29ed7f3ae1443bef2fa2159bdf5e86116bd81611b6b565b336000908152600f6020908152604080832086845282528083208151808301909252805482526001810154919290919083019060ff16600281111561170457611704612805565b600281111561171557611715612805565b905250805190915042101561176c5760405162461bcd60e51b815260206004820152601460248201527f537562736372697074696f6e20657870697265640000000000000000000000006044820152606401610a77565b6000848152600e602052604090205460ff16600281111561178f5761178f612805565b816020015160028111156117a5576117a5612805565b11156116885760405162461bcd60e51b815260206004820152601960248201527f496e73756666696369656e7420616363657373206c6576656c000000000000006044820152606401610a77565b50919050565b7fa49807205ce4d355092ef5a8a18f56e8913cf4a201fbe287825b095693c2177561182381611b6b565b610d2e7f9d56108290ea0bc9c5c59c3ad357dca9d1b29ed7f3ae1443bef2fa2159bdf5e883611c8d565b7fb6f6b279a7a4e2aa16012cbd36fcdc1fbdb91b92fd6dab57885c9de496473a8d61187781611b6b565b823361188282611063565b6001600160a01b0316146118e95760405162461bcd60e51b815260206004820152602860248201527f4f6e6c7920746f6b656e206f776e65722063616e20706572666f726d20746869604482015267399030b1ba34b7b760c11b6064820152608401610a77565b600083116119395760405162461bcd60e51b815260206004820152601f60248201527f5072696365206d7573742062652067726561746572207468616e207a65726f006044820152606401610a77565b6000848152600d60209081526040918290208590559051338152849186917f23f03f1339b31b3f10363be68d43da9053a861aa4ef6dc7f40ea91214466d5ae910160405180910390a350505050565b611990611d14565b6001600160a01b0381166119d3576040517f1e4fbdf700000000000000000000000000000000000000000000000000000000815260006004820152602401610a77565b6119dc81611d5a565b50565b60006001600160e01b031982167f7965db0b00000000000000000000000000000000000000000000000000000000148061097c575061097c8261200e565b6000818152600260205260408120546001600160a01b03168061097c57604051637e27328960e01b815260048101849052602401610a77565b610d2e838383600161204c565b6000828152600260205260408120546001600160a01b0390811690831615611a9057611a90818486612197565b6001600160a01b03811615611ace57611aad60008560008061204c565b6001600160a01b038116600090815260036020526040902080546000190190555b6001600160a01b03851615611afd576001600160a01b0385166000908152600360205260409020805460010190555b600084815260026020526040808220805473ffffffffffffffffffffffffffffffffffffffff19166001600160a01b0389811691821790925591518793918516917fddf252ad1be2c89b69c2b068fc378daa952ba7f163c4a11628f55a4df523b3ef91a490505b9392505050565b6119dc8133612214565b610a4d828260405180602001604052806000815250612282565b6000828152600660205260409020611ba78282612aad565b506040518281527ff8e1a15aba9398e019f0b49df1a4fde98ee17ae345cb5f6b5e2c27f5033e8ce79060200160405180910390a15050565b60008281526007602090815260408083206001600160a01b038516845290915281205460ff16611c855760008381526007602090815260408083206001600160a01b03861684529091529020805460ff19166001179055611c3d3390565b6001600160a01b0316826001600160a01b0316847f2f8788117e7eff1d82e926ec794901d17c78024a50270940304540a733656f0d60405160405180910390a450600161097c565b50600061097c565b60008281526007602090815260408083206001600160a01b038516845290915281205460ff1615611c855760008381526007602090815260408083206001600160a01b0386168085529252808320805460ff1916905551339286917ff6391f5c32d9c69d2a47ea670b442974b53935d1edc7fd64eb21e047a839171b9190a450600161097c565b6008546001600160a01b03163314611135576040517f118cdaa7000000000000000000000000000000000000000000000000000000008152336004820152602401610a77565b600880546001600160a01b0383811673ffffffffffffffffffffffffffffffffffffffff19831681179093556040519116919082907f8be0079c531659141344cd1fd0a4f28419497f9722a3daafe3b4186f6b6457e090600090a35050565b6001600160a01b038216611e04576040517f5b08ba180000000000000000000000000000000000000000000000000000000081526001600160a01b0383166004820152602401610a77565b6001600160a01b03838116600081815260056020908152604080832094871680845294825291829020805460ff191686151590811790915591519182527f17307eab39ab6107e8899845ad3d59bd9653f200f220920489ca2b5937696c31910160405180910390a3505050565b6001600160a01b0383163b15610af457604051630a85bd0160e11b81526001600160a01b0384169063150b7a0290611eb3903390889087908790600401612b6d565b6020604051808303816000875af1925050508015611eee575060408051601f3d908101601f19168201909252611eeb91810190612ba9565b60015b611f57573d808015611f1c576040519150601f19603f3d011682016040523d82523d6000602084013e611f21565b606091505b508051600003611f4f57604051633250574960e11b81526001600160a01b0385166004820152602401610a77565b805181602001fd5b6001600160e01b03198116630a85bd0160e11b14611f9357604051633250574960e11b81526001600160a01b0385166004820152602401610a77565b5050505050565b6060611fa582611a1d565b506000611fbd60408051602081019091526000815290565b90506000815111611fdd5760405180602001604052806000815250611b64565b80611fe784612299565b604051602001611ff8929190612a38565b6040516020818303038152906040529392505050565b60006001600160e01b031982167f4906490600000000000000000000000000000000000000000000000000000000148061097c575061097c82612339565b808061206057506001600160a01b03821615155b1561215a57600061207084611a1d565b90506001600160a01b0383161580159061209c5750826001600160a01b0316816001600160a01b031614155b80156120ce57506001600160a01b0380821660009081526005602090815260408083209387168352929052205460ff16155b15612110576040517fa9fbf51f0000000000000000000000000000000000000000000000000000000081526001600160a01b0384166004820152602401610a77565b81156121585783856001600160a01b0316826001600160a01b03167f8c5be1e5ebec7d5bd14f71427d1e84f3dd0314c0f7b2291e5b200ac8c7c3b92560405160405180910390a45b505b50506000908152600460205260409020805473ffffffffffffffffffffffffffffffffffffffff19166001600160a01b0392909216919091179055565b6121a28383836123d4565b610d2e576001600160a01b0383166121d057604051637e27328960e01b815260048101829052602401610a77565b6040517f177e802f0000000000000000000000000000000000000000000000000000000081526001600160a01b038316600482015260248101829052604401610a77565b60008281526007602090815260408083206001600160a01b038516845290915290205460ff16610a4d576040517fe2517d3f0000000000000000000000000000000000000000000000000000000081526001600160a01b038216600482015260248101839052604401610a77565b61228c8383612457565b610d2e6000848484611e71565b606060006122a6836124d5565b600101905060008167ffffffffffffffff8111156122c6576122c66126e3565b6040519080825280601f01601f1916602001820160405280156122f0576020820181803683370190505b5090508181016020015b600019017f3031323334353637383961626364656600000000000000000000000000000000600a86061a8153600a85049450846122fa57509392505050565b60006001600160e01b031982167f80ac58cd00000000000000000000000000000000000000000000000000000000148061239c57506001600160e01b031982167f5b5e139f00000000000000000000000000000000000000000000000000000000145b8061097c57507f01ffc9a7000000000000000000000000000000000000000000000000000000006001600160e01b031983161461097c565b60006001600160a01b038316158015906115bd5750826001600160a01b0316846001600160a01b0316148061242e57506001600160a01b0380851660009081526005602090815260408083209387168352929052205460ff165b806115bd5750506000908152600460205260409020546001600160a01b03908116911614919050565b6001600160a01b03821661248157604051633250574960e11b815260006004820152602401610a77565b600061248f83836000611a63565b90506001600160a01b03811615610d2e576040517f73c6ac6e00000000000000000000000000000000000000000000000000000000815260006004820152602401610a77565b6000807a184f03e93ff9f4daa797ed6e38ed64bf6a1f010000000000000000831061251e577a184f03e93ff9f4daa797ed6e38ed64bf6a1f010000000000000000830492506040015b6d04ee2d6d415b85acef8100000000831061254a576d04ee2d6d415b85acef8100000000830492506020015b662386f26fc10000831061256857662386f26fc10000830492506010015b6305f5e1008310612580576305f5e100830492506008015b612710831061259457612710830492506004015b606483106125a6576064830492506002015b600a831061097c5760010192915050565b6001600160e01b0319811681146119dc57600080fd5b6000602082840312156125df57600080fd5b8135611b64816125b7565b60005b838110156126055781810151838201526020016125ed565b50506000910152565b600081518084526126268160208601602086016125ea565b601f01601f19169290920160200192915050565b602081526000611b64602083018461260e565b60006020828403121561265f57600080fd5b5035919050565b80356001600160a01b038116811461098257600080fd5b6000806040838503121561269057600080fd5b61269983612666565b946020939093013593505050565b6000806000606084860312156126bc57600080fd5b6126c584612666565b92506126d360208501612666565b9150604084013590509250925092565b634e487b7160e01b600052604160045260246000fd5b600067ffffffffffffffff80841115612714576127146126e3565b604051601f8501601f19908116603f0116810190828211818310171561273c5761273c6126e3565b8160405280935085815286868601111561275557600080fd5b858560208301376000602087830101525050509392505050565b6000806040838503121561278257600080fd5b823567ffffffffffffffff81111561279957600080fd5b8301601f810185136127aa57600080fd5b6127b9858235602084016126f9565b9250506020830135600381106127ce57600080fd5b809150509250929050565b600080604083850312156127ec57600080fd5b823591506127fc60208401612666565b90509250929050565b634e487b7160e01b600052602160045260246000fd5b6003811061283957634e487b7160e01b600052602160045260246000fd5b9052565b82815260408101611b64602083018461281b565b60006020828403121561286357600080fd5b611b6482612666565b6000806040838503121561287f57600080fd5b61288883612666565b9150602083013580151581146127ce57600080fd5b600080600080608085870312156128b357600080fd5b6128bc85612666565b93506128ca60208601612666565b925060408501359150606085013567ffffffffffffffff8111156128ed57600080fd5b8501601f810187136128fe57600080fd5b61290d878235602084016126f9565b91505092959194509250565b6000806040838503121561292c57600080fd5b61293583612666565b91506127fc60208401612666565b6000806040838503121561295657600080fd5b50508035926020909101359150565b6020810161097c828461281b565b600181811c9082168061298757607f821691505b6020821081036117f357634e487b7160e01b600052602260045260246000fd5b634e487b7160e01b600052601160045260246000fd5b8082018082111561097c5761097c6129a7565b600082516129e28184602087016125ea565b9190910192915050565b8181038181111561097c5761097c6129a7565b808202811582820484141761097c5761097c6129a7565b600082612a3357634e487b7160e01b600052601260045260246000fd5b500490565b60008351612a4a8184602088016125ea565b835190830190612a5e8183602088016125ea565b01949350505050565b601f821115610d2e57600081815260208120601f850160051c81016020861015612a8e5750805b601f850160051c820191505b818110156112d357828155600101612a9a565b815167ffffffffffffffff811115612ac757612ac76126e3565b612adb81612ad58454612973565b84612a67565b602080601f831160018114612b105760008415612af85750858301515b600019600386901b1c1916600185901b1785556112d3565b600085815260208120601f198616915b82811015612b3f57888601518255948401946001909101908401612b20565b5085821015612b5d5787850151600019600388901b60f8161c191681555b5050505050600190811b01905550565b60006001600160a01b03808716835280861660208401525083604083015260806060830152612b9f608083018461260e565b9695505050505050565b600060208284031215612bbb57600080fd5b8151611b64816125b756fea2646970667358221220074f8817e14207f66960c3bdf9fcb557bde25f0ec003d4b1f7b44194d3c7e48e64736f6c63430008140033",
  "linkReferences": {},
  "deployedLinkReferences": {}
}