{
  "_format": "hh-sol-artifact-1",
  "contractName": "DecentralizedDataMarket",
  "sourceName": "contracts/DecentralizedDataMarket.sol",
  "abi": [
    {
      "inputs": [],
      "stateMutability": "nonpayable",
      "type": "constructor"
    },
    {
      "inputs": [],
      "name": "AccessControlBadConfirmation",
      "type": "error"
    },
    {
      "inputs": [
        {
          "internalType": "address",
          "name": "account",
          "type": "address"
        },
        {
          "internalType": "bytes32",
          "name": "neededRole",
          "type": "bytes32"
        }
      ],
      "name": "AccessControlUnauthorizedAccount",
      "type": "error"
    },
    {
      "inputs": [
        {
          "internalType": "address",
          "name": "sender",
          "type": "address"
        },
        {
          "internalType": "uint256",
          "name": "tokenId",
          "type": "uint256"
        },
        {
          "internalType": "address",
          "name": "owner",
          "type": "address"
        }
      ],
      "name": "ERC721IncorrectOwner",
      "type": "error"
    },
    {
      "inputs": [
        {
          "internalType": "address",
          "name": "operator",
          "type": "address"
        },
        {
          "internalType": "uint256",
          "name": "tokenId",
          "type": "uint256"
        }
      ],
      "name": "ERC721InsufficientApproval",
      "type": "error"
    },
    {
      "inputs": [
        {
          "internalType": "address",
          "name": "approver",
          "type": "address"
        }
      ],
      "name": "ERC721InvalidApprover",
      "type": "error"
    },
    {
      "inputs": [
        {
          "internalType": "address",
          "name": "operator",
          "type": "address"
        }
      ],
      "name": "ERC721InvalidOperator",
      "type": "error"
    },
    {
      "inputs": [
        {
          "internalType": "address",
          "name": "owner",
          "type": "address"
        }
      ],
      "name": "ERC721InvalidOwner",
      "type": "error"
    },
    {
      "inputs": [
        {
          "internalType": "address",
          "name": "receiver",
          "type": "address"
        }
      ],
      "name": "ERC721InvalidReceiver",
      "type": "error"
    },
    {
      "inputs": [
        {
          "internalType": "address",
          "name": "sender",
          "type": "address"
        }
      ],
      "name": "ERC721InvalidSender",
      "type": "error"
    },
    {
      "inputs": [
        {
          "internalType": "uint256",
          "name": "tokenId",
          "type": "uint256"
        }
      ],
      "name": "ERC721NonexistentToken",
      "type": "error"
    },
    {
      "inputs": [
        {
          "internalType": "address",
          "name": "owner",
          "type": "address"
        }
      ],
      "name": "OwnableInvalidOwner",
      "type": "error"
    },
    {
      "inputs": [
        {
          "internalType": "address",
          "name": "account",
          "type": "address"
        }
      ],
      "name": "OwnableUnauthorizedAccount",
      "type": "error"
    },
    {
      "anonymous": false,
      "inputs": [
        {
          "indexed": true,
          "internalType": "address",
          "name": "owner",
          "type": "address"
        },
        {
          "indexed": true,
          "internalType": "address",
          "name": "approved",
          "type": "address"
        },
        {
          "indexed": true,
          "internalType": "uint256",
          "name": "tokenId",
          "type": "uint256"
        }
      ],
      "name": "Approval",
      "type": "event"
    },
    {
      "anonymous": false,
      "inputs": [
        {
          "indexed": true,
          "internalType": "address",
          "name": "owner",
          "type": "address"
        },
        {
          "indexed": true,
          "internalType": "address",
          "name": "operator",
          "type": "address"
        },
        {
          "indexed": false,
          "internalType": "bool",
          "name": "approved",
          "type": "bool"
        }
      ],
      "name": "ApprovalForAll",
      "type": "event"
    },
    {
      "anonymous": false,
      "inputs": [
        {
          "indexed": false,
          "internalType": "uint256",
          "name": "_fromTokenId",
          "type": "uint256"
        },
        {
          "indexed": false,
          "internalType": "uint256",
          "name": "_toTokenId",
          "type": "uint256"
        }
      ],
      "name": "BatchMetadataUpdate",
      "type": "event"
    },
    {
      "anonymous": false,
      "inputs": [
        {
          "indexed": true,
          "internalType": "uint256",
          "name": "tokenId",
          "type": "uint256"
        },
        {
          "indexed": true,
          "internalType": "uint256",
          "name": "price",
          "type": "uint256"
        },
        {
          "indexed": false,
          "internalType": "address",
          "name": "creator",
          "type": "address"
        }
      ],
      "name": "DataListedForSale",
      "type": "event"
    },
    {
      "anonymous": false,
      "inputs": [
        {
          "indexed": true,
          "internalType": "uint256",
          "name": "tokenId",
          "type": "uint256"
        },
        {
          "indexed": true,
          "internalType": "string",
          "name": "dataHash",
          "type": "string"
        },
        {
          "indexed": true,
          "internalType": "enum DecentralizedDataMarket.DataCategory",
          "name": "category",
          "type": "uint8"
        },
        {
          "indexed": false,
          "internalType": "address",
          "name": "creator",
          "type": "address"
        }
      ],
      "name": "DataTokenCreated",
      "type": "event"
    },
    {
      "anonymous": false,
      "inputs": [
        {
          "indexed": false,
          "internalType": "uint256",
          "name": "_tokenId",
          "type": "uint256"
        }
      ],
      "name": "MetadataUpdate",
      "type": "event"
    },
    {
      "anonymous": false,
      "inputs": [
        {
          "indexed": true,
          "internalType": "address",
          "name": "previousOwner",
          "type": "address"
        },
        {
          "indexed": true,
          "internalType": "address",
          "name": "newOwner",
          "type": "address"
        }
      ],
      "name": "OwnershipTransferred",
      "type": "event"
    },
    {
      "anonymous": false,
      "inputs": [
        {
          "indexed": true,
          "internalType": "bytes32",
          "name": "role",
          "type": "bytes32"
        },
        {
          "indexed": true,
          "internalType": "bytes32",
          "name": "previousAdminRole",
          "type": "bytes32"
        },
        {
          "indexed": true,
          "internalType": "bytes32",
          "name": "newAdminRole",
          "type": "bytes32"
        }
      ],
      "name": "RoleAdminChanged",
      "type": "event"
    },
    {
      "anonymous": false,
      "inputs": [
        {
          "indexed": true,
          "internalType": "bytes32",
          "name": "role",
          "type": "bytes32"
        },
        {
          "indexed": true,
          "internalType": "address",
          "name": "account",
          "type": "address"
        },
        {
          "indexed": true,
          "internalType": "address",
          "name": "sender",
          "type": "address"
        }
      ],
      "name": "RoleGranted",
      "type": "event"
    },
    {
      "anonymous": false,
      "inputs": [
        {
          "indexed": true,
          "internalType": "bytes32",
          "name": "role",
          "type": "bytes32"
        },
        {
          "indexed": true,
          "internalType": "address",
          "name": "account",
          "type": "address"
        },
        {
          "indexed": true,
          "internalType": "address",
          "name": "sender",
          "type": "address"
        }
      ],
      "name": "RoleRevoked",
      "type": "event"
    },
    {
      "anonymous": false,
      "inputs": [
        {
          "indexed": false,
          "internalType": "address",
          "name": "creator",
          "type": "address"
        },
        {
          "indexed": true,
          "internalType": "uint256",
          "name": "tokenId",
          "type": "uint256"
        },
        {
          "indexed": false,
          "internalType": "uint256",
          "name": "duration",
          "type": "uint256"
        }
      ],
      "name": "SubscriptionCreated",
      "type": "event"
    },
    {
      "anonymous": false,
      "inputs": [
        {
          "indexed": true,
          "internalType": "address",
          "name": "from",
          "type": "address"
        },
        {
          "indexed": true,
          "internalType": "address",
          "name": "to",
          "type": "address"
        },
        {
          "indexed": true,
          "internalType": "uint256",
          "name": "tokenId",
          "type": "uint256"
        }
      ],
      "name": "Transfer",
      "type": "event"
    },
    {
      "inputs": [],
      "name": "ADMIN_ROLE",
      "outputs": [
        {
          "internalType": "bytes32",
          "name": "",
          "type": "bytes32"
        }
      ],
      "stateMutability": "view",
      "type": "function"
    },
    {
      "inputs": [],
      "name": "CONSUMER_ROLE",
      "outputs": [
        {
          "internalType": "bytes32",
          "name": "",
          "type": "bytes32"
        }
      ],
      "stateMutability": "view",
      "type": "function"
    },
    {
      "inputs": [],
      "name": "DATA_PROVIDER_ROLE",
      "outputs": [
        {
          "internalType": "bytes32",
          "name": "",
          "type": "bytes32"
        }
      ],
      "stateMutability": "view",
      "type": "function"
    },
    {
      "inputs": [],
      "name": "DEFAULT_ADMIN_ROLE",
      "outputs": [
        {
          "internalType": "bytes32",
          "name": "",
          "type": "bytes32"
        }
      ],
      "stateMutability": "view",
      "type": "function"
    },
    {
      "inputs": [
        {
          "internalType": "address",
          "name": "to",
          "type": "address"
        },
        {
          "internalType": "uint256",
          "name": "tokenId",
          "type": "uint256"
        }
      ],
      "name": "approve",
      "outputs": [],
      "stateMutability": "nonpayable",
      "type": "function"
    },
    {
      "inputs": [
        {
          "internalType": "address",
          "name": "owner",
          "type": "address"
        }
      ],
      "name": "balanceOf",
      "outputs": [
        {
          "internalType": "uint256",
          "name": "",
          "type": "uint256"
        }
      ],
      "stateMutability": "view",
      "type": "function"
    },
    {
      "inputs": [
        {
          "internalType": "uint256",
          "name": "",
          "type": "uint256"
        }
      ],
      "name": "dataCategories",
      "outputs": [
        {
          "internalType": "enum DecentralizedDataMarket.DataCategory",
          "name": "",
          "type": "uint8"
        }
      ],
      "stateMutability": "view",
      "type": "function"
    },
    {
      "inputs": [
        {
          "internalType": "uint256",
          "name": "tokenId",
          "type": "uint256"
        }
      ],
      "name": "getApproved",
      "outputs": [
        {
          "internalType": "address",
          "name": "",
          "type": "address"
        }
      ],
      "stateMutability": "view",
      "type": "function"
    },
    {
      "inputs": [
        {
          "internalType": "uint256",
          "name": "tokenId",
          "type": "uint256"
        }
      ],
      "name": "getDataURI",
      "outputs": [
        {
          "internalType": "string",
          "name": "",
          "type": "string"
        }
      ],
      "stateMutability": "view",
      "type": "function"
    },
    {
      "inputs": [
        {
          "internalType": "bytes32",
          "name": "role",
          "type": "bytes32"
        }
      ],
      "name": "getRoleAdmin",
      "outputs": [
        {
          "internalType": "bytes32",
          "name": "",
          "type": "bytes32"
        }
      ],
      "stateMutability": "view",
      "type": "function"
    },
    {
      "inputs": [
        {
          "internalType": "address",
          "name": "account",
          "type": "address"
        }
      ],
      "name": "grantAdminRole",
      "outputs": [],
      "stateMutability": "nonpayable",
      "type": "function"
    },
    {
      "inputs": [
        {
          "internalType": "address",
          "name": "account",
          "type": "address"
        }
      ],
      "name": "grantConsumerRole",
      "outputs": [],
      "stateMutability": "nonpayable",
      "type": "function"
    },
    {
      "inputs": [
        {
          "internalType": "address",
          "name": "account",
          "type": "address"
        }
      ],
      "name": "grantDataProviderRole",
      "outputs": [],
      "stateMutability": "nonpayable",
      "type": "function"
    },
    {
      "inputs": [
        {
          "internalType": "bytes32",
          "name": "role",
          "type": "bytes32"
        },
        {
          "internalType": "address",
          "name": "account",
          "type": "address"
        }
      ],
      "name": "grantRole",
      "outputs": [],
      "stateMutability": "nonpayable",
      "type": "function"
    },
    {
      "inputs": [
        {
          "internalType": "bytes32",
          "name": "role",
          "type": "bytes32"
        },
        {
          "internalType": "address",
          "name": "account",
          "type": "address"
        }
      ],
      "name": "hasRole",
      "outputs": [
        {
          "internalType": "bool",
          "name": "",
          "type": "bool"
        }
      ],
      "stateMutability": "view",
      "type": "function"
    },
    {
      "inputs": [
        {
          "internalType": "address",
          "name": "owner",
          "type": "address"
        },
        {
          "internalType": "address",
          "name": "operator",
          "type": "address"
        }
      ],
      "name": "isApprovedForAll",
      "outputs": [
        {
          "internalType": "bool",
          "name": "",
          "type": "bool"
        }
      ],
      "stateMutability": "view",
      "type": "function"
    },
    {
      "inputs": [
        {
          "internalType": "uint256",
          "name": "tokenId",
          "type": "uint256"
        },
        {
          "internalType": "uint256",
          "name": "price",
          "type": "uint256"
        }
      ],
      "name": "listDataForSale",
      "outputs": [],
      "stateMutability": "nonpayable",
      "type": "function"
    },
    {
      "inputs": [
        {
          "internalType": "string",
          "name": "ipfsHash",
          "type": "string"
        },
        {
          "internalType": "enum DecentralizedDataMarket.DataCategory",
          "name": "category",
          "type": "uint8"
        }
      ],
      "name": "mintDataToken",
      "outputs": [],
      "stateMutability": "payable",
      "type": "function"
    },
    {
      "inputs": [],
      "name": "mintFee",
      "outputs": [
        {
          "internalType": "uint256",
          "name": "",
          "type": "uint256"
        }
      ],
      "stateMutability": "view",
      "type": "function"
    },
    {
      "inputs": [],
      "name": "monthlyFee",
      "outputs": [
        {
          "internalType": "uint256",
          "name": "",
          "type": "uint256"
        }
      ],
      "stateMutability": "view",
      "type": "function"
    },
    {
      "inputs": [],
      "name": "name",
      "outputs": [
        {
          "internalType": "string",
          "name": "",
          "type": "string"
        }
      ],
      "stateMutability": "view",
      "type": "function"
    },
    {
      "inputs": [],
      "name": "owner",
      "outputs": [
        {
          "internalType": "address",
          "name": "",
          "type": "address"
        }
      ],
      "stateMutability": "view",
      "type": "function"
    },
    {
      "inputs": [
        {
          "internalType": "uint256",
          "name": "tokenId",
          "type": "uint256"
        }
      ],
      "name": "ownerOf",
      "outputs": [
        {
          "internalType": "address",
          "name": "",
          "type": "address"
        }
      ],
      "stateMutability": "view",
      "type": "function"
    },
    {
      "inputs": [],
      "name": "platformFee",
      "outputs": [
        {
          "internalType": "uint256",
          "name": "",
          "type": "uint256"
        }
      ],
      "stateMutability": "view",
      "type": "function"
    },
    {
      "inputs": [
        {
          "internalType": "uint256",
          "name": "tokenId",
          "type": "uint256"
        }
      ],
      "name": "priceOf",
      "outputs": [
        {
          "internalType": "uint256",
          "name": "",
          "type": "uint256"
        }
      ],
      "stateMutability": "view",
      "type": "function"
    },
    {
      "inputs": [
        {
          "internalType": "uint256",
          "name": "tokenId",
          "type": "uint256"
        }
      ],
      "name": "purchaseData",
      "outputs": [],
      "stateMutability": "payable",
      "type": "function"
    },
    {
      "inputs": [],
      "name": "renounceOwnership",
      "outputs": [],
      "stateMutability": "nonpayable",
      "type": "function"
    },
    {
      "inputs": [
        {
          "internalType": "bytes32",
          "name": "role",
          "type": "bytes32"
        },
        {
          "internalType": "address",
          "name": "callerConfirmation",
          "type": "address"
        }
      ],
      "name": "renounceRole",
      "outputs": [],
      "stateMutability": "nonpayable",
      "type": "function"
    },
    {
      "inputs": [
        {
          "internalType": "uint256",
          "name": "tokenId",
          "type": "uint256"
        }
      ],
      "name": "requestDataAccess",
      "outputs": [
        {
          "internalType": "string",
          "name": "",
          "type": "string"
        }
      ],
      "stateMutability": "payable",
      "type": "function"
    },
    {
      "inputs": [
        {
          "internalType": "address",
          "name": "account",
          "type": "address"
        }
      ],
      "name": "revokeAdminRole",
      "outputs": [],
      "stateMutability": "nonpayable",
      "type": "function"
    },
    {
      "inputs": [
        {
          "internalType": "address",
          "name": "account",
          "type": "address"
        }
      ],
      "name": "revokeConsumerRole",
      "outputs": [],
      "stateMutability": "nonpayable",
      "type": "function"
    },
    {
      "inputs": [
        {
          "internalType": "address",
          "name": "account",
          "type": "address"
        }
      ],
      "name": "revokeDataProviderRole",
      "outputs": [],
      "stateMutability": "nonpayable",
      "type": "function"
    },
    {
      "inputs": [
        {
          "internalType": "bytes32",
          "name": "role",
          "type": "bytes32"
        },
        {
          "internalType": "address",
          "name": "account",
          "type": "address"
        }
      ],
      "name": "revokeRole",
      "outputs": [],
      "stateMutability": "nonpayable",
      "type": "function"
    },
    {
      "inputs": [
        {
          "internalType": "address",
          "name": "from",
          "type": "address"
        },
        {
          "internalType": "address",
          "name": "to",
          "type": "address"
        },
        {
          "internalType": "uint256",
          "name": "tokenId",
          "type": "uint256"
        }
      ],
      "name": "safeTransferFrom",
      "outputs": [],
      "stateMutability": "nonpayable",
      "type": "function"
    },
    {
      "inputs": [
        {
          "internalType": "address",
          "name": "from",
          "type": "address"
        },
        {
          "internalType": "address",
          "name": "to",
          "type": "address"
        },
        {
          "internalType": "uint256",
          "name": "tokenId",
          "type": "uint256"
        },
        {
          "internalType": "bytes",
          "name": "data",
          "type": "bytes"
        }
      ],
      "name": "safeTransferFrom",
      "outputs": [],
      "stateMutability": "nonpayable",
      "type": "function"
    },
    {
      "inputs": [
        {
          "internalType": "address",
          "name": "operator",
          "type": "address"
        },
        {
          "internalType": "bool",
          "name": "approved",
          "type": "bool"
        }
      ],
      "name": "setApprovalForAll",
      "outputs": [],
      "stateMutability": "nonpayable",
      "type": "function"
    },
    {
      "inputs": [
        {
          "internalType": "uint256",
          "name": "tokenId",
          "type": "uint256"
        }
      ],
      "name": "subscribeToToken",
      "outputs": [],
      "stateMutability": "payable",
      "type": "function"
    },
    {
      "inputs": [
        {
          "internalType": "address",
          "name": "",
          "type": "address"
        },
        {
          "internalType": "uint256",
          "name": "",
          "type": "uint256"
        }
      ],
      "name": "subscriptions",
      "outputs": [
        {
          "internalType": "uint256",
          "name": "expiresAt",
          "type": "uint256"
        },
        {
          "internalType": "enum DecentralizedDataMarket.DataCategory",
          "name": "category",
          "type": "uint8"
        }
      ],
      "stateMutability": "view",
      "type": "function"
    },
    {
      "inputs": [
        {
          "internalType": "bytes4",
          "name": "interfaceId",
          "type": "bytes4"
        }
      ],
      "name": "supportsInterface",
      "outputs": [
        {
          "internalType": "bool",
          "name": "",
          "type": "bool"
        }
      ],
      "stateMutability": "view",
      "type": "function"
    },
    {
      "inputs": [],
      "name": "symbol",
      "outputs": [
        {
          "internalType": "string",
          "name": "",
          "type": "string"
        }
      ],
      "stateMutability": "view",
      "type": "function"
    },
    {
      "inputs": [],
      "name": "tokenIdCounter",
      "outputs": [
        {
          "internalType": "uint256",
          "name": "",
          "type": "uint256"
        }
      ],
      "stateMutability": "view",
      "type": "function"
    },
    {
      "inputs": [
        {
          "internalType": "uint256",
          "name": "",
          "type": "uint256"
        }
      ],
      "name": "tokenPrices",
      "outputs": [
        {
          "internalType": "uint256",
          "name": "",
          "type": "uint256"
        }
      ],
      "stateMutability": "view",
      "type": "function"
    },
    {
      "inputs": [
        {
          "internalType": "uint256",
          "name": "tokenId",
          "type": "uint256"
        }
      ],
      "name": "tokenURI",
      "outputs": [
        {
          "internalType": "string",
          "name": "",
          "type": "string"
        }
      ],
      "stateMutability": "view",
      "type": "function"
    },
    {
      "inputs": [
        {
          "internalType": "address",
          "name": "from",
          "type": "address"
        },
        {
          "internalType": "address",
          "name": "to",
          "type": "address"
        },
        {
          "internalType": "uint256",
          "name": "tokenId",
          "type": "uint256"
        }
      ],
      "name": "transferFrom",
      "outputs": [],
      "stateMutability": "nonpayable",
      "type": "function"
    },
    {
      "inputs": [
        {
          "internalType": "address",
          "name": "newOwner",
          "type": "address"
        }
      ],
      "name": "transferOwnership",
      "outputs": [],
      "stateMutability": "nonpayable",
      "type": "function"
    }
  ],
  "bytecode": "0x608060405266b1a2bc2ec5000060095566038d7ea4c68000600a5566071afd498d0000600b553480156200003257600080fd5b50336040518060400160405280601781526020017f446563656e7472616c697a6564446174614d61726b657400000000000000000081525060405180604001604052806005815260200164444154414d60d81b8152508160009081620000999190620002c3565b506001620000a88282620002c3565b5050506001600160a01b038116620000da57604051631e4fbdf760e01b81526000600482015260240160405180910390fd5b620000e58162000119565b50620001127fa49807205ce4d355092ef5a8a18f56e8913cf4a201fbe287825b095693c21775336200016b565b506200038f565b600880546001600160a01b038381166001600160a01b0319831681179093556040519116919082907f8be0079c531659141344cd1fd0a4f28419497f9722a3daafe3b4186f6b6457e090600090a35050565b60008281526007602090815260408083206001600160a01b038516845290915281205460ff16620002145760008381526007602090815260408083206001600160a01b03861684529091529020805460ff19166001179055620001cb3390565b6001600160a01b0316826001600160a01b0316847f2f8788117e7eff1d82e926ec794901d17c78024a50270940304540a733656f0d60405160405180910390a450600162000218565b5060005b92915050565b634e487b7160e01b600052604160045260246000fd5b600181811c908216806200024957607f821691505b6020821081036200026a57634e487b7160e01b600052602260045260246000fd5b50919050565b601f821115620002be57600081815260208120601f850160051c81016020861015620002995750805b601f850160051c820191505b81811015620002ba57828155600101620002a5565b5050505b505050565b81516001600160401b03811115620002df57620002df6200021e565b620002f781620002f0845462000234565b8462000270565b602080601f8311600181146200032f5760008415620003165750858301515b600019600386901b1c1916600185901b178555620002ba565b600085815260208120601f198616915b8281101562000360578886015182559484019460019091019084016200033f565b50858210156200037f5787850151600019600388901b60f8161c191681555b5050505050600190811b01905550565b612c4b806200039f6000396000f3fe6080604052600436106102f25760003560e01c80638cfd3e401161018f578063b9186d7d116100e1578063e5afe3e61161008a578063ec7095ec11610064578063ec7095ec146108dc578063f01edf32146108fc578063f2fde38b1461093957600080fd5b8063e5afe3e614610846578063e7b8e21b14610873578063e985e9c51461089357600080fd5b8063d547741f116100bb578063d547741f146107f3578063d5e305ca14610813578063de42fe431461083357600080fd5b8063b9186d7d14610786578063c634b78e146107b3578063c87b56dd146107d357600080fd5b80639a19c7b011610143578063a217fddf1161011d578063a217fddf14610731578063a22cb46514610746578063b88d4fde1461076657600080fd5b80639a19c7b0146106d15780639ec34a58146106f15780639fdbded11461071157600080fd5b806391d148541161017457806391d148541461066057806395d89b41146106a657806398bdf6f5146106bb57600080fd5b80638cfd3e401461062c5780638da5cb5b1461064257600080fd5b80633aeae31d116102485780636352211e116101fc578063715018a6116101d6578063715018a6146105d057806375b238fc146105e557806384c4f5941461061957600080fd5b80636352211e146105705780636cc3a64e1461059057806370a08231146105b057600080fd5b80634bc02da61161022d5780634bc02da6146104d95780635eba61c71461050d578063623da3d11461052057600080fd5b80633aeae31d1461048557806342842e0e146104b957600080fd5b806323b872dd116102aa57806326a7ae951161028457806326a7ae95146104325780632f2ff15d1461044557806336568abe1461046557600080fd5b806323b872dd146103cc578063248a9ca3146103ec57806326232a2e1461041c57600080fd5b8063081812fc116102db578063081812fc1461034e578063095ea7b31461038657806313966db5146103a857600080fd5b806301ffc9a7146102f757806306fdde031461032c575b600080fd5b34801561030357600080fd5b50610317610312366004612603565b610959565b60405190151581526020015b60405180910390f35b34801561033857600080fd5b506103416109a8565b6040516103239190612670565b34801561035a57600080fd5b5061036e610369366004612683565b610a3a565b6040516001600160a01b039091168152602001610323565b34801561039257600080fd5b506103a66103a13660046126b3565b610a63565b005b3480156103b457600080fd5b506103be600a5481565b604051908152602001610323565b3480156103d857600080fd5b506103a66103e73660046126dd565b610a72565b3480156103f857600080fd5b506103be610407366004612683565b60009081526007602052604090206001015490565b34801561042857600080fd5b506103be60095481565b6103a66104403660046127a5565b610b1b565b34801561045157600080fd5b506103a661046036600461280f565b610cf3565b34801561047157600080fd5b506103a661048036600461280f565b610d18565b34801561049157600080fd5b506103be7fb6f6b279a7a4e2aa16012cbd36fcdc1fbdb91b92fd6dab57885c9de496473a8d81565b3480156104c557600080fd5b506103a66104d43660046126dd565b610d69565b3480156104e557600080fd5b506103be7f9d56108290ea0bc9c5c59c3ad357dca9d1b29ed7f3ae1443bef2fa2159bdf5e881565b6103a661051b366004612683565b610d84565b34801561052c57600080fd5b5061056261053b3660046126b3565b600f6020908152600092835260408084209091529082529020805460019091015460ff1682565b604051610323929190612873565b34801561057c57600080fd5b5061036e61058b366004612683565b611099565b34801561059c57600080fd5b506103a66105ab366004612887565b6110a4565b3480156105bc57600080fd5b506103be6105cb366004612887565b6110f8565b3480156105dc57600080fd5b506103a6611159565b3480156105f157600080fd5b506103be7fa49807205ce4d355092ef5a8a18f56e8913cf4a201fbe287825b095693c2177581565b6103a6610627366004612683565b61116d565b34801561063857600080fd5b506103be600b5481565b34801561064e57600080fd5b506008546001600160a01b031661036e565b34801561066c57600080fd5b5061031761067b36600461280f565b60009182526007602090815260408084206001600160a01b0393909316845291905290205460ff1690565b3480156106b257600080fd5b50610341611311565b3480156106c757600080fd5b506103be600c5481565b3480156106dd57600080fd5b506103a66106ec366004612887565b611320565b3480156106fd57600080fd5b506103a661070c366004612887565b6113cc565b34801561071d57600080fd5b506103a661072c366004612887565b611420565b34801561073d57600080fd5b506103be600081565b34801561075257600080fd5b506103a66107613660046128a2565b611474565b34801561077257600080fd5b506103a66107813660046128d3565b61147f565b34801561079257600080fd5b506103be6107a1366004612683565b6000908152600d602052604090205490565b3480156107bf57600080fd5b506103a66107ce366004612887565b611496565b3480156107df57600080fd5b506103416107ee366004612683565b6114ea565b3480156107ff57600080fd5b506103a661080e36600461280f565b6115fb565b34801561081f57600080fd5b5061034161082e366004612683565b611620565b610341610841366004612683565b6116c7565b34801561085257600080fd5b506103be610861366004612683565b600d6020526000908152604090205481565b34801561087f57600080fd5b506103a661088e366004612887565b61182f565b34801561089f57600080fd5b506103176108ae36600461294f565b6001600160a01b03918216600090815260056020908152604080832093909416825291909152205460ff1690565b3480156108e857600080fd5b506103a66108f7366004612979565b611883565b34801561090857600080fd5b5061092c610917366004612683565b600e6020526000908152604090205460ff1681565b604051610323919061299b565b34801561094557600080fd5b506103a6610954366004612887565b6119be565b60007ffe003659000000000000000000000000000000000000000000000000000000006001600160e01b031983160161099457506001919050565b61099d82611a15565b92915050565b919050565b6060600080546109b7906129a9565b80601f01602080910402602001604051908101604052809291908181526020018280546109e3906129a9565b8015610a305780601f10610a0557610100808354040283529160200191610a30565b820191906000526020600020905b815481529060010190602001808311610a1357829003601f168201915b5050505050905090565b6000610a4582611a53565b506000828152600460205260409020546001600160a01b031661099d565b610a6e828233611a8c565b5050565b6001600160a01b038216610aa157604051633250574960e11b8152600060048201526024015b60405180910390fd5b6000610aae838333611a99565b9050836001600160a01b0316816001600160a01b031614610b15576040517f64283d7b0000000000000000000000000000000000000000000000000000000081526001600160a01b0380861660048301526024820184905282166044820152606401610a98565b50505050565b7fb6f6b279a7a4e2aa16012cbd36fcdc1fbdb91b92fd6dab57885c9de496473a8d610b4581611ba1565b600a54341015610b975760405162461bcd60e51b815260206004820152601060248201527f496e73756666696369656e7420666565000000000000000000000000000000006044820152606401610a98565b6000835111610be85760405162461bcd60e51b815260206004820152601160248201527f496e76616c6964204950465320686173680000000000000000000000000000006044820152606401610a98565b6000600c546001610bf991906129f3565b9050610c053382611bab565b600c8054906000610c1583612a06565b9190505550610c248185611bc5565b6000818152600e60205260409020805484919060ff19166001836002811115610c4f57610c4f61283b565b0217905550600854600a546040516001600160a01b039092169181156108fc0291906000818181858888f19350505050158015610c90573d6000803e3d6000fd5b50826002811115610ca357610ca361283b565b84604051610cb19190612a1f565b6040519081900381203382529083907f48e112afc30842835d04b40fdd9c01089c23aff9a1c41dc8de3eea9ad68f208c9060200160405180910390a450505050565b600082815260076020526040902060010154610d0e81611ba1565b610b158383611c15565b6001600160a01b0381163314610d5a576040517f6697b23200000000000000000000000000000000000000000000000000000000815260040160405180910390fd5b610d648282611cc3565b505050565b610d648383836040518060200160405280600081525061147f565b7f9d56108290ea0bc9c5c59c3ad357dca9d1b29ed7f3ae1443bef2fa2159bdf5e8610dae81611ba1565b600c54821115610e005760405162461bcd60e51b815260206004820152601460248201527f546f6b656e20646f6573206e6f742065786973740000000000000000000000006044820152606401610a98565b600b54341015610e525760405162461bcd60e51b815260206004820152601260248201527f496e73756666696369656e742066756e647300000000000000000000000000006044820152606401610a98565b610e87610e5e83611099565b6001600160a01b0316600090815260056020908152604080832033845290915290205460ff1690565b80610ea2575033610e9783610a3a565b6001600160a01b0316145b80610ebd575033610eb283611099565b6001600160a01b0316145b610f095760405162461bcd60e51b815260206004820152601260248201527f546f6b656e206e6f7420617070726f76656400000000000000000000000000006044820152606401610a98565b6040805180820190915262278d009080610f2383426129f3565b81526000858152600e602090815260409091205491019060ff166002811115610f4e57610f4e61283b565b9052336000908152600f602090815260408083208784528252909120825181559082015160018083018054909160ff1990911690836002811115610f9457610f9461283b565b0217905550905050600060646009546064610faf9190612a3b565b600b54610fbc9190612a4e565b610fc69190612a65565b9050600081600b54610fd89190612a3b565b9050610fe385611099565b6001600160a01b03166108fc839081150290604051600060405180830381858888f1935050505015801561101b573d6000803e3d6000fd5b506008546040516001600160a01b039091169082156108fc029083906000818181858888f19350505050158015611056573d6000803e3d6000fd5b50604080513381526020810185905286917feec977e786e7248a658b0474ccf8f57f37ead019014ec4d5ba1542ddabeff1b4910160405180910390a25050505050565b600061099d82611a53565b7fa49807205ce4d355092ef5a8a18f56e8913cf4a201fbe287825b095693c217756110ce81611ba1565b610d647f9d56108290ea0bc9c5c59c3ad357dca9d1b29ed7f3ae1443bef2fa2159bdf5e883611c15565b60006001600160a01b03821661113d576040517f89c62b6400000000000000000000000000000000000000000000000000000000815260006004820152602401610a98565b506001600160a01b031660009081526003602052604090205490565b611161611d4a565b61116b6000611d90565b565b7f9d56108290ea0bc9c5c59c3ad357dca9d1b29ed7f3ae1443bef2fa2159bdf5e861119781611ba1565b6000828152600d6020526040902054806111f35760405162461bcd60e51b815260206004820152601b60248201527f546f6b656e20686173206e6f74207072696365207365742079657400000000006044820152606401610a98565b803410156112435760405162461bcd60e51b815260206004820152601260248201527f496e73756666696369656e742066756e647300000000000000000000000000006044820152606401610a98565b6000606460095460646112569190612a3b565b6112609084612a4e565b61126a9190612a65565b905060006112788284612a3b565b905061128d61128686611099565b3387610d69565b61129685611099565b6001600160a01b03166108fc839081150290604051600060405180830381858888f193505050501580156112ce573d6000803e3d6000fd5b506008546040516001600160a01b039091169082156108fc029083906000818181858888f19350505050158015611309573d6000803e3d6000fd5b505050505050565b6060600180546109b7906129a9565b7fa49807205ce4d355092ef5a8a18f56e8913cf4a201fbe287825b095693c2177561134a81611ba1565b336001600160a01b038316036113a25760405162461bcd60e51b815260206004820152601c60248201527f43616e6e6f74207265766f6b65206f776e2061646d696e20726f6c65000000006044820152606401610a98565b610d647fa49807205ce4d355092ef5a8a18f56e8913cf4a201fbe287825b095693c2177583611cc3565b7fa49807205ce4d355092ef5a8a18f56e8913cf4a201fbe287825b095693c217756113f681611ba1565b610d647fb6f6b279a7a4e2aa16012cbd36fcdc1fbdb91b92fd6dab57885c9de496473a8d83611cc3565b7fa49807205ce4d355092ef5a8a18f56e8913cf4a201fbe287825b095693c2177561144a81611ba1565b610d647fb6f6b279a7a4e2aa16012cbd36fcdc1fbdb91b92fd6dab57885c9de496473a8d83611c15565b610a6e338383611def565b61148a848484610a72565b610b1584848484611ea7565b7fa49807205ce4d355092ef5a8a18f56e8913cf4a201fbe287825b095693c217756114c081611ba1565b610d647fa49807205ce4d355092ef5a8a18f56e8913cf4a201fbe287825b095693c2177583611c15565b60606114f582611a53565b506000828152600660205260408120805461150f906129a9565b80601f016020809104026020016040519081016040528092919081815260200182805461153b906129a9565b80156115885780601f1061155d57610100808354040283529160200191611588565b820191906000526020600020905b81548152906001019060200180831161156b57829003601f168201915b5050505050905060006115a660408051602081019091526000815290565b905080516000036115b8575092915050565b8151156115ea5780826040516020016115d2929190612a87565b60405160208183030381529060405292505050919050565b6115f384611fd0565b949350505050565b60008281526007602052604090206001015461161681611ba1565b610b158383611cc3565b60607fb6f6b279a7a4e2aa16012cbd36fcdc1fbdb91b92fd6dab57885c9de496473a8d61164c81611ba1565b823361165782611099565b6001600160a01b0316146116be5760405162461bcd60e51b815260206004820152602860248201527f4f6e6c7920746f6b656e206f776e65722063616e20706572666f726d20746869604482015267399030b1ba34b7b760c11b6064820152608401610a98565b6115f3846114ea565b60607f9d56108290ea0bc9c5c59c3ad357dca9d1b29ed7f3ae1443bef2fa2159bdf5e86116f381611ba1565b336000908152600f6020908152604080832086845282528083208151808301909252805482526001810154919290919083019060ff16600281111561173a5761173a61283b565b600281111561174b5761174b61283b565b90525080519091504210156117a25760405162461bcd60e51b815260206004820152601460248201527f537562736372697074696f6e20657870697265640000000000000000000000006044820152606401610a98565b6000848152600e602052604090205460ff1660028111156117c5576117c561283b565b816020015160028111156117db576117db61283b565b11156116be5760405162461bcd60e51b815260206004820152601960248201527f496e73756666696369656e7420616363657373206c6576656c000000000000006044820152606401610a98565b50919050565b7fa49807205ce4d355092ef5a8a18f56e8913cf4a201fbe287825b095693c2177561185981611ba1565b610d647f9d56108290ea0bc9c5c59c3ad357dca9d1b29ed7f3ae1443bef2fa2159bdf5e883611cc3565b7fb6f6b279a7a4e2aa16012cbd36fcdc1fbdb91b92fd6dab57885c9de496473a8d6118ad81611ba1565b82336118b882611099565b6001600160a01b03161461191f5760405162461bcd60e51b815260206004820152602860248201527f4f6e6c7920746f6b656e206f776e65722063616e20706572666f726d20746869604482015267399030b1ba34b7b760c11b6064820152608401610a98565b6000831161196f5760405162461bcd60e51b815260206004820152601f60248201527f5072696365206d7573742062652067726561746572207468616e207a65726f006044820152606401610a98565b6000848152600d60209081526040918290208590559051338152849186917f23f03f1339b31b3f10363be68d43da9053a861aa4ef6dc7f40ea91214466d5ae910160405180910390a350505050565b6119c6611d4a565b6001600160a01b038116611a09576040517f1e4fbdf700000000000000000000000000000000000000000000000000000000815260006004820152602401610a98565b611a1281611d90565b50565b60006001600160e01b031982167f7965db0b00000000000000000000000000000000000000000000000000000000148061099d575061099d82612044565b6000818152600260205260408120546001600160a01b03168061099d57604051637e27328960e01b815260048101849052602401610a98565b610d648383836001612082565b6000828152600260205260408120546001600160a01b0390811690831615611ac657611ac68184866121cd565b6001600160a01b03811615611b0457611ae3600085600080612082565b6001600160a01b038116600090815260036020526040902080546000190190555b6001600160a01b03851615611b33576001600160a01b0385166000908152600360205260409020805460010190555b600084815260026020526040808220805473ffffffffffffffffffffffffffffffffffffffff19166001600160a01b0389811691821790925591518793918516917fddf252ad1be2c89b69c2b068fc378daa952ba7f163c4a11628f55a4df523b3ef91a490505b9392505050565b611a12813361224a565b610a6e8282604051806020016040528060008152506122b8565b6000828152600660205260409020611bdd8282612afc565b506040518281527ff8e1a15aba9398e019f0b49df1a4fde98ee17ae345cb5f6b5e2c27f5033e8ce79060200160405180910390a15050565b60008281526007602090815260408083206001600160a01b038516845290915281205460ff16611cbb5760008381526007602090815260408083206001600160a01b03861684529091529020805460ff19166001179055611c733390565b6001600160a01b0316826001600160a01b0316847f2f8788117e7eff1d82e926ec794901d17c78024a50270940304540a733656f0d60405160405180910390a450600161099d565b50600061099d565b60008281526007602090815260408083206001600160a01b038516845290915281205460ff1615611cbb5760008381526007602090815260408083206001600160a01b0386168085529252808320805460ff1916905551339286917ff6391f5c32d9c69d2a47ea670b442974b53935d1edc7fd64eb21e047a839171b9190a450600161099d565b6008546001600160a01b0316331461116b576040517f118cdaa7000000000000000000000000000000000000000000000000000000008152336004820152602401610a98565b600880546001600160a01b0383811673ffffffffffffffffffffffffffffffffffffffff19831681179093556040519116919082907f8be0079c531659141344cd1fd0a4f28419497f9722a3daafe3b4186f6b6457e090600090a35050565b6001600160a01b038216611e3a576040517f5b08ba180000000000000000000000000000000000000000000000000000000081526001600160a01b0383166004820152602401610a98565b6001600160a01b03838116600081815260056020908152604080832094871680845294825291829020805460ff191686151590811790915591519182527f17307eab39ab6107e8899845ad3d59bd9653f200f220920489ca2b5937696c31910160405180910390a3505050565b6001600160a01b0383163b15610b1557604051630a85bd0160e11b81526001600160a01b0384169063150b7a0290611ee9903390889087908790600401612bbc565b6020604051808303816000875af1925050508015611f24575060408051601f3d908101601f19168201909252611f2191810190612bf8565b60015b611f8d573d808015611f52576040519150601f19603f3d011682016040523d82523d6000602084013e611f57565b606091505b508051600003611f8557604051633250574960e11b81526001600160a01b0385166004820152602401610a98565b805181602001fd5b6001600160e01b03198116630a85bd0160e11b14611fc957604051633250574960e11b81526001600160a01b0385166004820152602401610a98565b5050505050565b6060611fdb82611a53565b506000611ff360408051602081019091526000815290565b905060008151116120135760405180602001604052806000815250611b9a565b8061201d846122cf565b60405160200161202e929190612a87565b6040516020818303038152906040529392505050565b60006001600160e01b031982167f4906490600000000000000000000000000000000000000000000000000000000148061099d575061099d8261236f565b808061209657506001600160a01b03821615155b156121905760006120a684611a53565b90506001600160a01b038316158015906120d25750826001600160a01b0316816001600160a01b031614155b801561210457506001600160a01b0380821660009081526005602090815260408083209387168352929052205460ff16155b15612146576040517fa9fbf51f0000000000000000000000000000000000000000000000000000000081526001600160a01b0384166004820152602401610a98565b811561218e5783856001600160a01b0316826001600160a01b03167f8c5be1e5ebec7d5bd14f71427d1e84f3dd0314c0f7b2291e5b200ac8c7c3b92560405160405180910390a45b505b50506000908152600460205260409020805473ffffffffffffffffffffffffffffffffffffffff19166001600160a01b0392909216919091179055565b6121d883838361240a565b610d64576001600160a01b03831661220657604051637e27328960e01b815260048101829052602401610a98565b6040517f177e802f0000000000000000000000000000000000000000000000000000000081526001600160a01b038316600482015260248101829052604401610a98565b60008281526007602090815260408083206001600160a01b038516845290915290205460ff16610a6e576040517fe2517d3f0000000000000000000000000000000000000000000000000000000081526001600160a01b038216600482015260248101839052604401610a98565b6122c2838361248d565b610d646000848484611ea7565b606060006122dc8361250b565b600101905060008167ffffffffffffffff8111156122fc576122fc612719565b6040519080825280601f01601f191660200182016040528015612326576020820181803683370190505b5090508181016020015b600019017f3031323334353637383961626364656600000000000000000000000000000000600a86061a8153600a850494508461233057509392505050565b60006001600160e01b031982167f80ac58cd0000000000000000000000000000000000000000000000000000000014806123d257506001600160e01b031982167f5b5e139f00000000000000000000000000000000000000000000000000000000145b8061099d57507f01ffc9a7000000000000000000000000000000000000000000000000000000006001600160e01b031983161461099d565b60006001600160a01b038316158015906115f35750826001600160a01b0316846001600160a01b0316148061246457506001600160a01b0380851660009081526005602090815260408083209387168352929052205460ff165b806115f35750506000908152600460205260409020546001600160a01b03908116911614919050565b6001600160a01b0382166124b757604051633250574960e11b815260006004820152602401610a98565b60006124c583836000611a99565b90506001600160a01b03811615610d64576040517f73c6ac6e00000000000000000000000000000000000000000000000000000000815260006004820152602401610a98565b6000807a184f03e93ff9f4daa797ed6e38ed64bf6a1f0100000000000000008310612554577a184f03e93ff9f4daa797ed6e38ed64bf6a1f010000000000000000830492506040015b6d04ee2d6d415b85acef81000000008310612580576d04ee2d6d415b85acef8100000000830492506020015b662386f26fc10000831061259e57662386f26fc10000830492506010015b6305f5e10083106125b6576305f5e100830492506008015b61271083106125ca57612710830492506004015b606483106125dc576064830492506002015b600a831061099d5760010192915050565b6001600160e01b031981168114611a1257600080fd5b60006020828403121561261557600080fd5b8135611b9a816125ed565b60005b8381101561263b578181015183820152602001612623565b50506000910152565b6000815180845261265c816020860160208601612620565b601f01601f19169290920160200192915050565b602081526000611b9a6020830184612644565b60006020828403121561269557600080fd5b5035919050565b80356001600160a01b03811681146109a357600080fd5b600080604083850312156126c657600080fd5b6126cf8361269c565b946020939093013593505050565b6000806000606084860312156126f257600080fd5b6126fb8461269c565b92506127096020850161269c565b9150604084013590509250925092565b634e487b7160e01b600052604160045260246000fd5b600067ffffffffffffffff8084111561274a5761274a612719565b604051601f8501601f19908116603f0116810190828211818310171561277257612772612719565b8160405280935085815286868601111561278b57600080fd5b858560208301376000602087830101525050509392505050565b600080604083850312156127b857600080fd5b823567ffffffffffffffff8111156127cf57600080fd5b8301601f810185136127e057600080fd5b6127ef8582356020840161272f565b92505060208301356003811061280457600080fd5b809150509250929050565b6000806040838503121561282257600080fd5b823591506128326020840161269c565b90509250929050565b634e487b7160e01b600052602160045260246000fd5b6003811061286f57634e487b7160e01b600052602160045260246000fd5b9052565b82815260408101611b9a6020830184612851565b60006020828403121561289957600080fd5b611b9a8261269c565b600080604083850312156128b557600080fd5b6128be8361269c565b91506020830135801515811461280457600080fd5b600080600080608085870312156128e957600080fd5b6128f28561269c565b93506129006020860161269c565b925060408501359150606085013567ffffffffffffffff81111561292357600080fd5b8501601f8101871361293457600080fd5b6129438782356020840161272f565b91505092959194509250565b6000806040838503121561296257600080fd5b61296b8361269c565b91506128326020840161269c565b6000806040838503121561298c57600080fd5b50508035926020909101359150565b6020810161099d8284612851565b600181811c908216806129bd57607f821691505b60208210810361182957634e487b7160e01b600052602260045260246000fd5b634e487b7160e01b600052601160045260246000fd5b8082018082111561099d5761099d6129dd565b600060018201612a1857612a186129dd565b5060010190565b60008251612a31818460208701612620565b9190910192915050565b8181038181111561099d5761099d6129dd565b808202811582820484141761099d5761099d6129dd565b600082612a8257634e487b7160e01b600052601260045260246000fd5b500490565b60008351612a99818460208801612620565b835190830190612aad818360208801612620565b01949350505050565b601f821115610d6457600081815260208120601f850160051c81016020861015612add5750805b601f850160051c820191505b8181101561130957828155600101612ae9565b815167ffffffffffffffff811115612b1657612b16612719565b612b2a81612b2484546129a9565b84612ab6565b602080601f831160018114612b5f5760008415612b475750858301515b600019600386901b1c1916600185901b178555611309565b600085815260208120601f198616915b82811015612b8e57888601518255948401946001909101908401612b6f565b5085821015612bac5787850151600019600388901b60f8161c191681555b5050505050600190811b01905550565b60006001600160a01b03808716835280861660208401525083604083015260806060830152612bee6080830184612644565b9695505050505050565b600060208284031215612c0a57600080fd5b8151611b9a816125ed56fea2646970667358221220809a1a7c9bb94f033a837c5ff080fcb84327d7c98dffc0bc54e8d7f4f2a7fbab64736f6c63430008140033",
  "linkReferences": {},
  "deployedLinkReferences": {}
}